:1000000012C019C018C017C016C015C014C013C044
:1000100012C011C010C00FC00EC00DC00CC00BC06C
:100020000AC009C008C011241FBECFE5D4E0DEBF5E
:10003000CDBF06D02CC0E4CF85B5896685BD0895B7
:10004000FBDFBB9ABD9AB99A7894E0E0F0E040E417
:100050005FE168E873E129E130E0C598CF0183BD35
:10006000DA011197F1F70196A1E080309A07B9F70C
:10007000CB01D9011197F1F70197D9F713BCC59AB4
:10008000CB01D9011197F1F70197D9F7E6CFF89491
:02009000FFCFA0
:00000001FF
